:100000000C9434000C9451000C9451000C94510049
:100010000C9499000C9451000C9451000C945100D4
:100020000C9451000C9451000C9451000C948F01CD
:100030000C9451000C9451000C9451000C945100FC
:100040000C94F0000C9451000C9451000C9451004D
:100050000C9451000C9451000C9451000C945100DC
:100060000C9451000C94510011241FBECFEFD8E026
:10007000DEBFCDBF11E0A0E0B1E0ECE0F4E002C0F3
:1000800005900D92A431B107D9F721E0A4E1B1E0C8
:1000900001C01D92AA31B207E1F70E94D9010C9468
:1000A00004020C940000E82FF0E0E050FF4F808144
:1000B000089588B1877C88B98BB18F778BB980918F
:1000C0001701883238F088B18F6D88B98BB180689C
:1000D0008BB908958E3121F488B18F6E88B9089557
:1000E000843121F488B1876F88B908958A3019F472
:1000F00088B1886088B9089585B1807F85B980917D
:100100001601883220F085B18B6F85B908958E3144
:1001100021F485B18D6F85B90895843121F485B1BD
:100120008E6F85B908958A3019F485B1816085B9DB
:1001300008951F920F920FB60F9211248F939F93E1
:10014000EF93FF9386B1877080931901909110010E
:1001500090FF12C080FD10C080911501811133C045
:1001600016BC85E085BDE8E6F0E080818D7F808368
:1001700081E08093180127C091FF12C081FD10C05B
:10018000809115018230F9F416BC85E085BDE8E662
:10019000F0E080818D7F808382E08093180113C01E
:1001A00092FF11C0847079F480911501823059F466
:1001B00016BC85E085BDE8E6F0E080818D7F808318
:1001C00083E0809318018091190180931001FF91C1
:1001D000EF919F918F910F900FBE0F901F901895E8
:1001E0001F920F920FB60F9211242F933F934F93AC
:1001F0005F936F937F938F939F93AF93BF93EF938F
:10020000FF9315BC96B1809118018130F9F490FDEF
:100210006EC08093150185E0809312010E94530007
:100220008BB9E1E8F0E01082109285001092840012
:1002300083E294EF90938900809388008CE0808320
:10024000EFE6F0E080818260808351C0823049F522
:1002500091FD4DC08091170190911101891708F00F
:1002600046C090911401911142C08F5F8093170195
:100270000E94590090911701809111019817B8F1CF
:1002800083E08093150181E08093140188B1886335
:1002900088B98BB180688BB981E00E9453008BB91B
:1002A00026C0833021F592FD22C0809116019091E5
:1002B00011018917E0F490911401911118C08F5F1A
:1002C000809316010E947C0090911601809111018B
:1002D000981768F083E08093150182E08093140101
:1002E00085B18F6085B982E00E9453008BB910926E
:1002F0001801E8E6F0E0808182608083FF91EF9151
:10030000BF91AF919F918F917F916F915F914F912D
:100310003F912F910F900FBE0F901F9018951F9235
:100320000F920FB60F9211242F933F934F935F9329
:100330006F937F938F939F93AF93BF93EF93FF93AD
:1003400080911201882321F18150809312010E9433
:1003500053008BB98091120181111AC01092810053
:10036000EFE6F0E080818D7F808382E0809315014D
:100370001092170110921601109214011BB888B147
:10038000877C88B98BB18F778BB985B1807F85B930
:10039000FF91EF91BF91AF919F918F917F916F915D
:1003A0005F914F913F912F910F900FBE0F901F9033
:1003B00018958FEF8AB9809112010E9453008BB972
:1003C00088E387B988B1876088B98FE084B915B8A8
:1003D00014BC15BC16BC81E080936E0010928000A6
:1003E0001092810010926F00E8E6F0E08081826058
:1003F0008083ECE6F0E080818760808386B187703F
:0C040000809310017894FFCFF894FFCF98
:10040C003F065B4F666D7D077F67777C395E797140
:04041C0007040500CC
:00000001FF
