S01400004C61626F7261746F72696F312E7372656361
S11300000C9434000C9451000C9451000C94510045
S11300100C9459000C9451000C9451000C94510010
S11300200C9451000C9451000C9451000C94B200A7
S11300300C9451000C9451000C9451000C945100F8
S11300400C9476000C9451000C9451000C945100C3
S11300500C9451000C9451000C9451000C945100D8
S11300600C9451000C94510011241FBECFEFD8E022
S1130070DEBFCDBF11E0A0E0B1E0E0E2F2E002C0FB
S113008005900D92A231B107D9F721E0A2E1B1E0C8
S113009001C01D92A431B207E1F70E94EB000C9459
S11300A00E010C940000E82FF0E0E050FF4F808137
S11300B008951F920F920FB60F9211248F93EF930E
S11300C0FF9386B18370809313018FEF86BD85E023
S11300D085BDE8E6F0E080818D7F8083FF91EF911C
S11300E08F910F900FBE0F901F9018951F920F9233
S11300F00FB60F9211242F938F939F93EF93FF9337
S113010015BC86B1282F23709091130129131BC0AD
S113011080FF19C080911201811115C08CE0809379
S1130120810083E294EF9093890080938800109279
S1130130850010928400EFE6F0E080818260808385
S113014081E080931201E8E6F0E0808182608083A0
S1130150FF91EF919F918F912F910F900FBE0F9070
S11301601F9018951F920F920FB60F9211242F9380
S11301703F934F935F936F937F938F939F93AF932B
S1130180BF93EF93FF9380911001882331F0815046
S1130190809310010E9453008BB98091100181114A
S11301A009C010928100EFE6F0E080818D7F8083AA
S11301B010921201FF91EF91BF91AF919F918F9196
S11301C07F916F915F914F913F912F910F900FBE4F
S11301D00F901F9018958FEF8AB9809110010E949B
S11301E053008BB987B18C7F87B988B1836088B994
S11301F0E8E6F0E0808182608083ECE6F0E08081D4
S113020083608083EEE6F0E0808181608083EFE6A6
S1130210F0E080818D7F80837894FFCFF894FFCFC6
S11302203F065B4F666D7D077F67777C395E79712A
S10502300500C3
S9030000FC
