S01400004C61626F7261746F72696F312E7372656361
S11300000C9434000C9451000C9451000C94510045
S11300100C9453000C9451000C9451000C94510016
S11300200C9451000C9451000C9451000C949C00BD
S11300300C9451000C9451000C9451000C945100F8
S11300400C9470000C9451000C9451000C945100C9
S11300500C9451000C9451000C9451000C945100D8
S11300600C9451000C94510011241FBECFEFD8E022
S1130070DEBFCDBF11E0A0E0B1E0E4EEF1E002C0EC
S113008005900D92A231B107D9F721E0A2E1B1E0C8
S113009001C01D92A431B207E1F70E94C0000C9484
S11300A0F0000C9400001F920F920FB60F921124CF
S11300B08F93EF93FF9386B18370809312018FEF38
S11300C086BD85E085BDE8E6F0E080818D7F808394
S11300D0FF91EF918F910F900FBE0F901F90189585
S11300E01F920F920FB60F9211242F938F939F9309
S11300F0EF93FF9315BC86B1282F237090911201C2
S113010029130BC080FF09C084E08093810087EF2E
S113011092EC9093850080938400E8E6F0E080817F
S113012082608083FF91EF919F918F912F910F9027
S11301300FBE0F901F9018951F920F920FB60F923B
S113014011248F93EF93FF93E0911001EE2351F06C
S1130150E150E0931001F0E0E050FF4F8081809384
S113016013018BB980911001811102C0109281009A
S1130170FF91EF918F910F900FBE0F901F901895E4
S11301808FEF8AB987B18C7F87B988B1836088B9CA
S11301901092800088E08093810083E294EF909332
S11301A089008093880082E080936F00E8E6F0E0A5
S11301B0808182608083ECE6F0E0808183608083CC
S11301C0EEE6F0E08081816080837894E091100114
S11301D0F0E0E050FF4F8081809313018BB9FFCF93
S10701E0F894FFCFBD
S11301E43F065B4F666D7D077F67777C395E797167
S10501F4050000
S9030000FC
