:100000000C9434000C9451000C9451000C94510049
:100010000C94A3000C9451000C9451000C945100CA
:100020000C9451000C9451000C9451000C941E013E
:100030000C9451000C9451000C9451000C945100FC
:100040000C94C0000C9451000C9451000C9451007D
:100050000C9451000C9451000C9451000C945100DC
:100060000C9451000C94510011241FBECFEFD8E026
:10007000DEBFCDBF11E0A0E0B1E0E8EFF2E002C0EA
:1000800005900D92A231B107D9F721E0A2E1B1E0CC
:1000900001C01D92A531B207E1F70E9457010C94EF
:1000A0007A010C940000E82FF0E0E050FF4F8081CF
:1000B000089588B1877C88B98BB18F778BB980918F
:1000C0001301843060F081E090E00E94800080683D
:1000D0009BB1892B8BB988B1887388B90895833017
:1000E00021F488B1876E88B90895823021F488B1EF
:1000F000876F88B90895813019F488B1886088B90C
:10010000089585B1807F85B980911201843048F0CF
:1001100085B18F6085B982E090E00E9480008BB944
:100120000895833021F485B18C6F85B908958230AC
:1001300021F485B18E6F85B90895813019F485B1A8
:10014000816085B908951F920F920FB60F92112406
:100150008F93EF93FF9386B18770809314018FEF95
:1001600086BD85E085BDE8E6F0E080818D7F8083F7
:10017000FF91EF918F910F900FBE0F901F901895E8
:100180001F920F920FB60F9211242F933F934F930C
:100190005F936F937F938F939F93AF93BF93EF93EF
:1001A000FF9315BC86B18770813099F48CE0809301
:1001B000810083E294EF90938900809388001092ED
:1001C000850010928400EFE6F0E0808182608083F9
:1001D0001FC0823071F4809113018F5F80931301EF
:1001E0000E94590080911301843090F01092130105
:1001F0000FC0843069F4809112018F5F80931201E7
:100200000E94810080911201843010F0109212013E
:10021000E8E6F0E0808182608083FF91EF91BF91FA
:10022000AF919F918F917F916F915F914F913F918E
:100230002F910F900FBE0F901F9018951F920F9245
:100240000FB60F9211242F933F934F935F936F93A9
:100250007F938F939F93AF93BF93EF93FF9380917F
:100260001001882331F08150809310010E945300C7
:100270008BB980911001811109C010928100EFE6C5
:10028000F0E080818D7F808310921001FF91EF91CB
:10029000BF91AF919F918F917F916F915F914F919E
:1002A0003F912F910F900FBE0F901F9018958FEFD9
:1002B0008AB9809110010E9453008BB987B18C7F5D
:1002C00087B988B1836088B9E8E6F0E08081826010
:1002D0008083ECE6F0E0808183608083EEE6F0E0EE
:1002E000808181608083EFE6F0E080818D7F808374
:0802F0007894FFCFF894FFCFD2
:1002F8003F065B4F666D7D077F67777C395E797156
:020308000500EE
:00000001FF
