S01400004C61626F7261746F72696F322E7372656360
S11300000C9434000C9451000C9451000C94510045
S11300100C9451000C9451000C9451000C94510018
S11300200C9451000C9451000C9451000C94510008
S11300300C9451000C9451000C9451000C945100F8
S11300400C9451000C9451000C9451000C945100E8
S11300500C9451000C9451000C9451000C945100D8
S11300600C9451000C94510011241FBECFEFD8E022
S1130070DEBFCDBF11E0A0E0B1E0E2EFF9E002C0E5
S113008005900D92A832B107D9F721E0A8E2B1E0BA
S113009001C01D92A935B207E1F70E94CB000C9470
S11300A0F7040C94000088B1826088B985E08A95D1
S11300B0F1F7000088B18D7F88B98FE39FE1019744
S11300C0F1F700C00000089595B1907F282F2F709C
S11300D0922B95B99BB19F70807F892B8BB90E941D
S11300E05300089598B19E7F98B90E9464000895C2
S11300F098B1916098B90E9464000895CF93DF93FA
S1130100EC0103C021960E94780088818111FACF06
S1130110DF91CF910895811103C080E8860F02C05A
S113012080EC860F0E947200089584B18F6084B9B8
S11301308AB1806F8AB987B1836087B988B18C7FAF
S113014088B92FEF89EF90E0215080409040E1F78B
S113015000C0000088E30E9472008CE00E947200DC
S113016086E00E94720081E00E9472000895877008
S1130170806480937C00EAE7F0E087E880838081F4
S11301808064808380917A0086FDFCCF8091780022
S1130190909179000895F89487B1837F87B90E947C
S11301A095000E94B10160E080E00E948B0080E035
S11301B091E00E947E00789482E00E94B7009093C0
S11301C03101809330019C01A8E8B3E10E94FE0153
S11301D02FEF33E040E050E00E94DC0169017A0136
S11301E03093470120934601A901569547955695AA
S11301F04795569547959A01A5ECB0E20E94FE01F9
S11302009C01329522952F7023273F70232768EE97
S113021073E0269FC001279F900D369F900D1124F7
S11302209601281B390BADECBCEC0E94FE0196959F
S1130230879596958795969587959F938F939A0121
S1130240A5ECB0E20E94FE01929582958F708927F9
S11302509F7089279F938F9381E191E09F938F9360
S113026082E391E09F938F930E940D0266E081E008
S11302700E948B008AE191E00E947E0066E081E0AA
S11302800E948B0082E391E00E947E0083E00E9442
S1130290B70080933A0190933B019F938F9380E240
S11302A091E09F938F938CE391E09F938F930E94AF
S11302B00D0260E081E00E948B008BE191E00E94DE
S11302C07E0060E081E00E948B008CE391E00E945C
S11302D07E000E94BD012DB73EB7225F3F4F0FB68F
S11302E0F8943EBF0FBE2DBF8B3231F480912801AC
S11302F08F5F8093280107C08D3229F480912801F3
S1130300815080932801809128011F928F9384E269
S113031091E09F938F938AE291E09F938F930E9441
S11303200D026CE081E00E948B008CE191E00E9460
S11303307E006CE081E00E948B008AE291E00E94E2
S11303407E003FEF85EA9EE0315080409040E1F727
S113035000C000000F900F900F900F900F900F901F
S11303602BCF1092C50087E68093C40086E080936B
S1130370C20088E98093C1000895809129018823EF
S1130380C9F08091480191E00BC0292F30E0F901B8
S1130390E85BFE4F4081F901E95BFE4F40839F5FBC
S11303A020912901921788F39091290191509093FB
S11303B02901089580E00895A1E21A2EAA1BBB1B0F
S11303C0FD010DC0AA1FBB1FEE1FFF1FA217B3071D
S11303D0E407F50720F0A21BB30BE40BF50B661F33
S11303E0771F881F991F1A9469F7609570958095F7
S11303F090959B01AC01BD01CF010895A29FB0016E
S1130400B39FC001A39F700D811D1124911DB29F44
S1130410700D811D1124911D0895AEE0B0E0E3E15B
S1130420F2E00C94CE040D891E8986E08C831A8335
S113043009838FEF9FE79E838D83AE01475E5F4FF5
S11304406F89788DCE0101960E942F02EF81F88585
S1130450E00FF11F10822E96E4E00C94EA04ABE066
S1130460B0E0E5E3F2E00C94C0046C017B018A0186
S1130470FC0117821682838181FFCCC1CE010196D3
S11304803C01F6019381F70193FD859193FF8191DE
S11304907F01882309F4BAC1853239F493FD85912B
S11304A093FF81917F01853229F4B60190E00E9487
S11304B02604E7CF912C212C312CFFE1F315D8F041
S11304C08B3279F038F4803279F08332A1F4232D21
S11304D020611DC08D3261F0803369F4232D2160C9
S11304E016C0832D8260382EE32DE4603E2E2AC090
S11304F0F32DF8601DC037FC2DC020ED280F2A30E5
S113050040F08E32B9F436FC81C1232D2064322EA2
S113051019C036FE06C08AE0989E200D1124922E42
S113052011C0EAE02E9E200D1124222EF32DF0623C
S11305303F2E08C08C3621F4832D8068382E02C0EB
S1130540883641F4F70193FD859193FF81917F01F2
S11305508111B3CF982F9F7D9554933028F40C5F6D
S11305601F4F9FE399830DC0833631F0833771F0B9
S1130570833509F059C021C0F801808189830E5F59
S11305801F4F88248394912C530113C02801F2E057
S11305904F0E511CF801A080B18036FE03C0692DB6
S11305A070E002C06FEF7FEFC5010E941B044C0195
S11305B08201F32DFF773F2E16C0280122E0420E60
S11305C0511CF801A080B18036FE03C0692D70E093
S11305D002C06FEF7FEFC5010E9410044C01F32DA0
S11305E0F0683F2E820133FC1BC0822D90E08816F8
S11305F09906B0F4B60180E290E00E9426042A94A1
S1130600F4CFF50137FC859137FE81915F01B60186
S113061090E00E94260421102A9421E0821A910875
S11306208114910471F7E8C0843611F0893641F5DC
S1130630F80137FE07C060817181828193810C5F6C
S11306401F4F08C060817181072E000C880B990B25
S11306500E5F1F4FF32DFF763F2E97FF09C0909535
S11306608095709561957F4F8F4F9F4FF0683F2E17
S11306702AE030E0A3010E946204882E861845C057
S1130680853731F4232D2F7EB22E2AE030E025C0A9
S1130690932D997FB92E8F36C1F018F4883579F0EF
S11306A0B5C0803719F0883721F0B0C0E92FE06178
S11306B0BE2EB4FE0DC0FB2DF460BF2E09C034FE67
S11306C00AC0292F2660B22E06C028E030E005C0FB
S11306D020E130E002C020E132E0F801B7FE07C0BB
S11306E060817181828193810C5F1F4F06C060819C
S11306F0718180E090E00E5F1F4FA3010E946204AD
S1130700882E8618FB2DFF773F2E36FE0DC0232D35
S11307102E7FA22E891458F434FE0BC032FC09C07B
S1130720832D8E7EA82E05C0B82CA32C03C0B82C14
S113073001C0B92CA4FE0FC0FE01E80DF11D80819B
S1130740803321F49A2D997EA92E09C0A2FE06C0F9
S1130750B394B39404C08A2D867809F0B394A3FCAF
S113076011C0A0FE06C0B21488F4280C922C9B1869
S11307700EC0B21460F4B60180E290E00E94260438
S1130780B394F7CFB21418F42B1802C0982C212C70
S1130790A4FE10C0B60180E390E00E942604A2FEED
S11307A017C0A1FC03C088E790E002C088E590E090
S11307B0B6010CC08A2D867859F0A1FE02C08BE2E6
S11307C001C080E2A7FC8DE2B60190E00E942604FD
S11307D0891438F4B60180E390E00E9426049A94C8
S11307E0F7CF8A94F301E80DF11D8081B60190E002
S11307F00E9426048110F5CF222009F442CEB601CE
S113080080E290E00E9426042A94F6CFF6018681C5
S1130810978102C08FEF9FEF2B96E2E10C94DC04EA
S1130820FC010590615070400110D8F780959095B7
S11308308E0F9F1F0895FC016150704001900110BC
S1130840D8F7809590958E0F9F1F08950F931F934F
S1130850CF93DF93FB01238121FD03C08FEF9FEF33
S11308602CC022FF16C0468157812481358142174E
S1130870530744F4A081B1819D012F5F3F4F318321
S113088020838C93268137812F5F3F4F37832683C4
S113089014C08B01EC01FB010084F185E02D099566
S11308A0892BE1F6D80116968D919C9117970196A4
S11308B017969C938E931697CE01DF91CF911F913B
S11308C00F910895FA01AA27283051F1203181F1BE
S11308D0E8946F936E7F6E5F7F4F8F4F9F4FAF4F44
S11308E0B1E03ED0B4E03CD0670F781F891F9A1F57
S11308F0A11D680F791F8A1F911DA11D6A0F711D0B
S1130900811D911DA11D20D009F468943F912AE016
S1130910269F11243019305D3193DEF6CF010895FE
S1130920462F4770405D4193B3E00FD0C9F7F6CF2F
S1130930462F4F70405D4A3318F0495D31FD4052F7
S1130940419302D0A9F7EACFB4E0A695979587958D
S113095077956795BA95C9F700976105710508956C
S11309609B01AC010A2E0694579547953795279518
S1130970BA95C9F7620F731F841F951FA01D0895B0
S11309802F923F924F925F926F927F928F929F929B
S1130990AF92BF92CF92DF92EF92FF920F931F9389
S11309A0CF93DF93CDB7DEB7CA1BDB0B0FB6F8943A
S11309B0DEBF0FBECDBF09942A88398848885F847A
S11309C06E847D848C849B84AA84B984C884DF80EB
S11309D0EE80FD800C811B81AA81B981CE0FD11DCF
S11309E00FB6F894DEBF0FBECDBFED010895F894A5
S10509F0FFCF33
S11309F253313A20202053323A2020202053333AD4
S1130A020025752E25303275560020202020200026
S10B0A1225347500253364004E
S9030000FC
