S01400004C61626F7261746F72696F322E7372656360
S11300000C9434000C9451000C9451000C94510045
S11300100C9451000C9451000C9451000C94510018
S11300200C9451000C9451000C9451000C94510008
S11300300C9451000C9451000C9451000C945100F8
S11300400C9451000C9451000C941F020C94510018
S11300500C9451000C9451000C9451000C945100D8
S11300600C9451000C94510011241FBECFEFD8E022
S1130070DEBFCDBF11E0A0E0B1E0E8E0FBE002C0EC
S113008005900D92A633B107D9F721E0A6E3B1E0BC
S113009001C01D92A637B207E1F70E94DB000C9461
S11300A082050C94000080E480937C00EAE7F0E091
S11300B087E8808380818064808380917A0086FDD4
S11300C0FCCF0895ECE7F0E09081907F8F70892B4E
S11300D08083EAE7F0E080818064808380917A0005
S11300E086FDFCCF8091780090917900089588B1C5
S11300F0826088B985E08A95F1F7000088B18D7F28
S113010088B98FE39FE10197F1F700C000000895DB
S113011095B1907F282F2F70922B95B99BB19F702A
S1130120807F892B8BB90E947700089598B19E7FB8
S113013098B90E948800089598B1916098B90E9476
S113014088000895CF93DF93EC0103C021960E94A9
S11301509C0088818111FACFDF91CF91089581119C
S113016003C080E8860F02C080EC860F0E949600D0
S1130170089584B18F6084B98AB1806F8AB987B1D8
S1130180836087B988B18C7F88B92FEF89EF90E0BD
S1130190215080409040E1F700C0000088E30E94B5
S11301A096008CE00E94960086E00E94960081E012
S11301B00E9496000895F89487B1837F87B90E94BE
S11301C0B9000E94FF010E94530060E080E00E9499
S11301D0AF0080E091E00E94A200789482E00E9447
S11301E0620090934F0180934E019C01A8E8B3E113
S11301F00E9489022FEF33E040E050E00E94670242
S113020069017A013093650120936401A90156952F
S1130210479556954795569547959A01A5ECB0E2B2
S11302200E9489029C01329522952F7023273F70EA
S1130230232768EE73E0269FC001279F900D369F09
S1130240900D11249601281B390BADECBCEC0E94D7
S113025089029695879596958795969587959F9308
S11302608F939A01A5ECB0E20E948902929582953F
S11302708F7089279F7089279F938F9381E191E0E5
S11302809F938F9380E591E09F938F930E949802B0
S113029066E081E00E94AF0080E591E00E94A20048
S11302A083E00E94620080935801909359019F93C8
S11302B08F938FE291E09F938F938AE591E09F93D0
S11302C08F930E94980260E081E00E94AF008AE56B
S11302D091E00E94A2000E9445022DB73EB7225F22
S11302E03F4F0FB6F8943EBF0FBE2DBF8B3231F493
S11302F0809136018F5F8093360107C08D3229F4D7
S113030080913601815080933601809136011F928D
S11303108F938AE191E09F938F9388E391E09F9379
S11303208F930E9498026CE081E00E94AF0088E302
S113033091E00E94A200E0916401F0916501AF0197
S11303405695479556954795569547959A01A5EC28
S1130350B0E20E9489029C01329522952F702327D6
S11303603F70232768EE73E0269FC001279F900DFE
S1130370369F900D11249F01281B390B8091590140
S11303808F93809158018F93ADECBCEC0E9489024D
S11303909695879596958795969587959F938F9330
S11303A09A01A5ECB0E20E948902929582958F7021
S11303B089279F7089279F938F938EE191E09F9364
S11303C08F938EE391E09F938F930E9498028EE324
S11303D091E00E94120283E391E00E94120287EAF4
S11303E091E60197F1F700C000002DB73EB7205FFA
S11303F03F4F0FB6F8943EBF0FBE2DBFEFCE109205
S1130400C50087E68093C40086E08093C20088E933
S11304108093C10008959091C00095FFFCCF809314
S1130420C6000895CF93DF93EC0103C021960E9488
S11304300B0288818111FACFDF91CF9108951F9229
S11304400F920FB60F9211242F938F939F93EF93D4
S1130450FF932091C6008FB7909137019F3050F4DD
S1130460E091370191E09E0F90933701F0E0EA5953
S1130470FE4F20838FBFFF91EF919F918F912F911A
S11304800F900FBE0F901F9018955FB7F89480914E
S113049037018823C9F08091660191E00BC0292FB0
S11304A030E0F901EA59FE4F4081F901EB59FE4F62
S11304B040839F5F20913701921788F39091370111
S11304C091509093370101C080E05FBF0895A1E28D
S11304D01A2EAA1BBB1BFD010DC0AA1FBB1FEE1FBA
S11304E0FF1FA217B307E407F50720F0A21BB30B05
S11304F0E40BF50B661F771F881F991F1A9469F781
S113050060957095809590959B01AC01BD01CF01DC
S11305100895A29FB001B39FC001A39F700D811DD8
S11305201124911DB29F700D811D1124911D0895F8
S1130530AEE0B0E0EEE9F2E00C9459050D891E89B5
S113054086E08C831A8309838FEF9FE79E838D83D4
S1130550AE01475E5F4F6F89788DCE0101960E9490
S1130560BA02EF81F885E00FF11F10822E96E4E0C5
S11305700C947505ABE0B0E0E0ECF2E00C944B05B4
S11305806C017B018A01FC0117821682838181FF41
S1130590CCC1CE0101963C01F6019381F70193FD94
S11305A0859193FF81917F01882309F4BAC1853233
S11305B039F493FD859193FF81917F01853229F46C
S11305C0B60190E00E94B104E7CF912C212C312C8C
S11305D0FFE1F315D8F08B3279F038F4803279F0FA
S11305E08332A1F4232D20611DC08D3261F080334C
S11305F069F4232D216016C0832D8260382EE32DEB
S1130600E4603E2E2AC0F32DF8601DC037FC2DC0D7
S113061020ED280F2A3040F08E32B9F436FC81C127
S1130620232D2064322E19C036FE06C08AE0989E1F
S1130630200D1124922E11C0EAE02E9E200D1124CB
S1130640222EF32DF0623F2E08C08C3621F4832D28
S11306508068382E02C0883641F4F70193FD8591F5
S113066093FF81917F018111B3CF982F9F7D955482
S1130670933028F40C5F1F4F9FE399830DC083369A
S113068031F0833771F0833509F059C021C0F80186
S1130690808189830E5F1F4F88248394912C53019A
S11306A013C02801F2E04F0E511CF801A080B18064
S11306B036FE03C0692D70E002C06FEF7FEFC50105
S11306C00E94A6044C018201F32DFF773F2E16C031
S11306D0280122E0420E511CF801A080B18036FEB0
S11306E003C0692D70E002C06FEF7FEFC5010E9467
S11306F09B044C01F32DF0683F2E820133FC1BC098
S1130700822D90E088169906B0F4B60180E290E05C
S11307100E94B1042A94F4CFF50137FC859137FE89
S113072081915F01B60190E00E94B10421102A94E6
S113073021E0821A91088114910471F7E8C084368B
S113074011F0893641F5F80137FE07C060817181E7
S1130750828193810C5F1F4F08C060817181072ED5
S1130760000C880B990B0E5F1F4FF32DFF763F2E65
S113077097FF09C090958095709561957F4F8F4F35
S11307809F4FF0683F2E2AE030E0A3010E94ED0461
S1130790882E861845C0853731F4232D2F7EB22E3E
S11307A02AE030E025C0932D997FB92E8F36C1F011
S11307B018F4883579F0B5C0803719F0883721F0FE
S11307C0B0C0E92FE061BE2EB4FE0DC0FB2DF46075
S11307D0BF2E09C034FE0AC0292F2660B22E06C0DF
S11307E028E030E005C020E130E002C020E132E042
S11307F0F801B7FE07C060817181828193810C5F2B
S11308001F4F06C06081718180E090E00E5F1F4F32
S1130810A3010E94ED04882E8618FB2DFF773F2E3E
S113082036FE0DC0232D2E7FA22E891458F434FEDB
S11308300BC032FC09C0832D8E7EA82E05C0B82CB7
S1130840A32C03C0B82C01C0B92CA4FE0FC0FE0118
S1130850E80DF11D8081803321F49A2D997EA92E13
S113086009C0A2FE06C0B394B39404C08A2D86784E
S113087009F0B394A3FC11C0A0FE06C0B21488F41E
S1130880280C922C9B180EC0B21460F4B60180E2BE
S113089090E00E94B104B394F7CFB21418F42B186B
S11308A002C0982C212CA4FE10C0B60180E390E075
S11308B00E94B104A2FE17C0A1FC03C088E790E027
S11308C002C088E590E0B6010CC08A2D867859F004
S11308D0A1FE02C08BE201C080E2A7FC8DE2B6015A
S11308E090E00E94B104891438F4B60180E390E0EA
S11308F00E94B1049A94F7CF8A94F301E80DF11D94
S11309008081B60190E00E94B1048110F5CF2220CD
S113091009F442CEB60180E290E00E94B1042A9428
S1130920F6CFF6018681978102C08FEF9FEF2B9659
S1130930E2E10C946705FC010590615070400110E0
S1130940D8F7809590958E0F9F1F0895FC016150F4
S1130950704001900110D8F7809590958E0F9F1FDD
S113096008950F931F93CF93DF93FB01238121FD00
S113097003C08FEF9FEF2CC022FF16C04681578122
S1130980248135814217530744F4A081B1819D012C
S11309902F5F3F4F318320838C93268137812F5FD4
S11309A03F4F3783268314C08B01EC01FB01008485
S11309B0F185E02D0995892BE1F6D80116968D91E4
S11309C09C911797019617969C938E931697CE0138
S11309D0DF91CF911F910F910895FA01AA27283032
S11309E051F1203181F1E8946F936E7F6E5F7F4FF8
S11309F08F4F9F4FAF4FB1E03ED0B4E03CD0670F74
S1130A00781F891F9A1FA11D680F791F8A1F911DC6
S1130A10A11D6A0F711D811D911DA11D20D009F416
S1130A2068943F912AE0269F11243019305D319358
S1130A30DEF6CF010895462F4770405D4193B3E041
S1130A400FD0C9F7F6CF462F4F70405D4A3318F0E8
S1130A50495D31FD4052419302D0A9F7EACFB4E099
S1130A60A6959795879577956795BA95C9F7009751
S1130A706105710508959B01AC010A2E06945795F2
S1130A80479537952795BA95C9F7620F731F841F49
S1130A90951FA01D08952F923F924F925F926F92DF
S1130AA07F928F929F92AF92BF92CF92DF92EF92FA
S1130AB0FF920F931F93CF93DF93CDB7DEB7CA1B7B
S1130AC0DB0B0FB6F894DEBF0FBECDBF09942A88A6
S1130AD0398848885F846E847D848C849B84AA844E
S1130AE0B984C884DF80EE80FD800C811B81AA81DB
S1130AF0B981CE0FD11D0FB6F894DEBF0FBECDBFA6
S10B0B00ED010895F894FFCF04
S1130B0853313A20202053323A2020202053333ABC
S1130B180025752E2530327556002533640053316F
S1130B283D25752E253032755620202053323D251B
S1090B383475000D0A00F3
S9030000FC
